:101C000013C022C021C020C01FC01EC01DC01CC0E8
:101C10001BC01AC019C018C017C016C015C014C008
:101C200013C012C011C010C011241FBECFEFD2E0EC
:101C3000DEBFCDBF21E0A0E0B1E001C01D92A33422
:101C4000B207E1F7E1D0BFC1DBCFE3E0F0E0849180
:101C5000DF01AF5FBE4F8C933197C8F7089540E026
:101C600050E061E0FA01EF5FFE4F218130E0322F5A
:101C700022277081272B07B600FCFDCFFA01E80F61
:101C8000F91F090160935700E89511244E5F5F4FDB
:101C90004034510539F707B600FCFDCF25E0FC01C3
:101CA00020935700E8950895FC01603811F094E8FE
:101CB00001C094EC9093BC008091BC0087FFFCCFE6
:101CC000A8958091B900861729F084E98093BC001B
:101CD00080E008958091BB008083683819F484E81F
:101CE0008093BC0081E00895CF93DF9300D0CDB7FF
:101CF000DEB760E8CE010296D7DF60E8CE0101963C
:101D0000D3DF898190E0982F88272A81822B0F903A
:101D10000F90DF91CF9108958093BB0084EC809366
:101D2000BC008091BC0087FFFCCFA8958091B900D2
:101D3000883B19F084E98093BC00089587B18C7CBE
:101D400087B988B18F7C88B93F9A479A83B193B19C
:101D5000282F2170892F8270822B8865880F8093AD
:101D6000BA0084E48093BC0008958627682F6295AA
:101D70006827062E669566956025062E6695602571
:101D80006770082E892F669507946795902D862792
:101D900006946795902586270895CF92DF92EF925B
:101DA000FF921F93CF93DF9310910001C12FD0E0DA
:101DB00084E0CC0FDD1F8A95E1F7CF5FDE4F6E0127
:101DC00080E1C80ED11CEE24EA94FE2C60E8CE011E
:101DD0006BDF811102C080E00FC06991C701C5DFD0
:101DE0007C01CC15DD0591F77FDFE816F90699F740
:101DF0001F5F1093000181E0DF91CF911F91FF9051
:101E0000EF90DF90CF900895CF93DF9300D0CDB7C0
:101E1000DEB704B600FC03C004B601FEC6C014BEA3
:101E20008DDF99E288E10FB6F894A8958093600061
:101E30000FBE9093600084EC582E94E9E92E99240B
:101E40009A9481E091E020E4F22EF80E33E0832EA4
:101E5000C12CD12CAA24AA94BA2C5092BC008091F7
:101E6000BC0087FFFCCFA8958091B900803669F04F
:101E7000883A09F097C081E04FDF809141014CDF43
:101E80008091420149DF5ADFE8CF60E8CE01029637
:101E90000BDF882311F38A81833009F444C028F4CE
:101EA0008130A1F08230F9F07DC0843009F446C061
:101EB000863009F077C018DF8C0116DFB09242013E
:101EC000A09241013C01600E711E5AC010920001A7
:101ED000E1E0F1E09192FE12FDCF06DF9093420126
:101EE00080934101BACF81E491E057DF811102C0B4
:101EF00060E815C080910001843081F400914101B7
:101F000010914201007C0115110511F49EDE04C000
:101F100001158CE1180710F4C801A1DE68E8CE01B4
:101F20000196C2DE9ACF98E088E10FB6F894A895A2
:101F3000809360000FBE90936000FFCFE1E0F1E07E
:101F40009192FE12FDCF81DE07B600FCFDCFF601B7
:101F500080925700E89580E090E081DE80E490E098
:101F60007EDEE0E4F0E007B600FCFDCF8092570093
:101F7000E895E05CFF4FE1158CE1F807A1F76DCF24
:101F80000615170508F069CFF801649180914101A9
:101F900090914201EADE90934201809341010F5FEC
:101FA0001F4FEECFE092BC0058CF14BE0FB6F8948E
:101FB000A895809160008861809360001092600015
:0A1FC0000FBE3AC0FFCFF894FFCF28
:0400000300001C00DD
:02000000FFCD32
:02000200FFCD30
:02000400FFCD2E
:02000600FFCD2C
:02000800FFCD2A
:02000A00FFCD28
:02000C00FFCD26
:02000E00FFCD24
:02001000FFCD22
:02001200FFCD20
:02001400FFCD1E
:02001600FFCD1C
:02001800FFCD1A
:02001A00FFCD18
:02001C00FFCD16
:02001E00FFCD14
:02002000FFCD12
:02002200FFCD10
:02002400FFCD0E
:02002600FFCD0C
:02002800FFCD0A
:00000001FF
